{
  "_format": "hh-sol-artifact-1",
  "contractName": "ProfileCreationProxy",
  "sourceName": "contracts/misc/ProfileCreationProxy.sol",
  "abi": [
    {
      "inputs": [
        {
          "internalType": "address",
          "name": "owner",
          "type": "address"
        },
        {
          "internalType": "contract ILensHub",
          "name": "hub",
          "type": "address"
        }
      ],
      "stateMutability": "nonpayable",
      "type": "constructor"
    },
    {
      "inputs": [],
      "name": "HandleContainsInvalidCharacters",
      "type": "error"
    },
    {
      "inputs": [],
      "name": "HandleFirstCharInvalid",
      "type": "error"
    },
    {
      "inputs": [],
      "name": "HandleLengthInvalid",
      "type": "error"
    },
    {
      "anonymous": false,
      "inputs": [
        {
          "indexed": true,
          "internalType": "address",
          "name": "previousOwner",
          "type": "address"
        },
        {
          "indexed": true,
          "internalType": "address",
          "name": "newOwner",
          "type": "address"
        }
      ],
      "name": "OwnershipTransferred",
      "type": "event"
    },
    {
      "inputs": [],
      "name": "owner",
      "outputs": [
        {
          "internalType": "address",
          "name": "",
          "type": "address"
        }
      ],
      "stateMutability": "view",
      "type": "function"
    },
    {
      "inputs": [
        {
          "components": [
            {
              "internalType": "address",
              "name": "to",
              "type": "address"
            },
            {
              "internalType": "string",
              "name": "handle",
              "type": "string"
            },
            {
              "internalType": "string",
              "name": "imageURI",
              "type": "string"
            },
            {
              "internalType": "address",
              "name": "followModule",
              "type": "address"
            },
            {
              "internalType": "bytes",
              "name": "followModuleInitData",
              "type": "bytes"
            },
            {
              "internalType": "string",
              "name": "followNFTURI",
              "type": "string"
            }
          ],
          "internalType": "struct DataTypes.CreateProfileData",
          "name": "vars",
          "type": "tuple"
        }
      ],
      "name": "proxyCreateProfile",
      "outputs": [],
      "stateMutability": "nonpayable",
      "type": "function"
    },
    {
      "inputs": [],
      "name": "renounceOwnership",
      "outputs": [],
      "stateMutability": "nonpayable",
      "type": "function"
    },
    {
      "inputs": [
        {
          "internalType": "address",
          "name": "newOwner",
          "type": "address"
        }
      ],
      "name": "transferOwnership",
      "outputs": [],
      "stateMutability": "nonpayable",
      "type": "function"
    }
  ],
  "bytecode": "0x60a060405234801561001057600080fd5b5060405161084338038061084383398101604081905261002f916100bb565b61003833610053565b61004182610053565b6001600160a01b0316608052506100f5565b600080546001600160a01b038381166001600160a01b0319831681178455604051919092169283917f8be0079c531659141344cd1fd0a4f28419497f9722a3daafe3b4186f6b6457e09190a35050565b6001600160a01b03811681146100b857600080fd5b50565b600080604083850312156100ce57600080fd5b82516100d9816100a3565b60208401519092506100ea816100a3565b809150509250929050565b60805161073361011060003960006101f001526107336000f3fe608060405234801561001057600080fd5b506004361061004c5760003560e01c806307e5f94814610051578063715018a6146100665780638da5cb5b1461006e578063f2fde38b1461008d575b600080fd5b61006461005f366004610492565b6100a0565b005b61006461026e565b600054604080516001600160a01b039092168252519081900360200190f35b61006461009b36600461058d565b610282565b6100a8610300565b60208101515160058110156100d057604051633eb64ab360e01b815260040160405180910390fd5b600082602001516000815181106100e9576100e96105af565b01602001516001600160f81b0319169050602d60f81b8114806101195750605f60f81b6001600160f81b03198216145b806101315750601760f91b6001600160f81b03198216145b1561014f57604051632f2c22a760e11b815260040160405180910390fd5b60015b828110156101ac5783602001518181518110610170576101706105af565b6020910101516001600160f81b031916601760f91b14156101a457604051630bb7f19b60e21b815260040160405180910390fd5b600101610152565b506020808401516040516101c092016105f1565b60408051601f198184030181529181526020850191909152516001620af63960e11b031981526001600160a01b037f0000000000000000000000000000000000000000000000000000000000000000169063ffea138e90610225908690600401610646565b6020604051808303816000875af1158015610244573d6000803e3d6000fd5b505050506040513d601f19601f8201168201806040525081019061026891906106e4565b50505050565b610276610300565b610280600061035a565b565b61028a610300565b6001600160a01b0381166102f45760405162461bcd60e51b815260206004820152602660248201527f4f776e61626c653a206e6577206f776e657220697320746865207a65726f206160448201526564647265737360d01b60648201526084015b60405180910390fd5b6102fd8161035a565b50565b6000546001600160a01b031633146102805760405162461bcd60e51b815260206004820181905260248201527f4f776e61626c653a2063616c6c6572206973206e6f7420746865206f776e657260448201526064016102eb565b600080546001600160a01b038381166001600160a01b0319831681178455604051919092169283917f8be0079c531659141344cd1fd0a4f28419497f9722a3daafe3b4186f6b6457e09190a35050565b634e487b7160e01b600052604160045260246000fd5b60405160c0810167ffffffffffffffff811182821017156103e3576103e36103aa565b60405290565b80356001600160a01b038116811461040057600080fd5b919050565b600082601f83011261041657600080fd5b813567ffffffffffffffff80821115610431576104316103aa565b604051601f8301601f19908116603f01168101908282118183101715610459576104596103aa565b8160405283815286602085880101111561047257600080fd5b836020870160208301376000602085830101528094505050505092915050565b6000602082840312156104a457600080fd5b813567ffffffffffffffff808211156104bc57600080fd5b9083019060c082860312156104d057600080fd5b6104d86103c0565b6104e1836103e9565b81526020830135828111156104f557600080fd5b61050187828601610405565b60208301525060408301358281111561051957600080fd5b61052587828601610405565b604083015250610537606084016103e9565b606082015260808301358281111561054e57600080fd5b61055a87828601610405565b60808301525060a08301358281111561057257600080fd5b61057e87828601610405565b60a08301525095945050505050565b60006020828403121561059f57600080fd5b6105a8826103e9565b9392505050565b634e487b7160e01b600052603260045260246000fd5b60005b838110156105e05781810151838201526020016105c8565b838111156102685750506000910152565b600082516106038184602087016105c5565b642e6c656e7360d81b920191825250600501919050565b600081518084526106328160208601602086016105c5565b601f01601f19169290920160200192915050565b60208152600060018060a01b03808451166020840152602084015160c0604085015261067560e085018261061a565b90506040850151601f1980868403016060870152610693838361061a565b925083606088015116608087015260808701519350808684030160a08701526106bc838561061a565b935060a08701519250808685030160c087015250506106db828261061a565b95945050505050565b6000602082840312156106f657600080fd5b505191905056fea2646970667358221220fae85424ff0cb96955de24a9b1ef5a4db0c19c5f2c76568e650b22fbdce33ae164736f6c634300080a0033",
  "linkReferences": {},
  "deployedLinkReferences": {}
}